:020000040800F2
:10000000C0570020E10100080D270008391D000835
:10001000091E0008D51100084B420008000000002E
:10002000000000000000000000000000490100087E
:10003000D9110008000000008D010008B95800081F
:10004000FB010008FB010008FB010008FB010008A0
:10005000FB010008FB010008FB010008FB01000890
:10006000FB010008FB010008FB010008FB01000880
:10007000FB010008FB010008FB010008FB01000870
:10008000FB010008FB010008FB010008FB01000860
:10009000FB010008FB010008FB010008FB01000850
:1000A000FB010008FB010008FB010008FB01000840
:1000B000FB010008FB010008FB010008FB01000830
:1000C000FB010008FB010008FB010008FB01000820
:1000D000FB010008FB010008CD3F000811400008AB
:1000E00095140008FB010008FB010008FB01000853
:1000F000FB010008FB010008FB010008FB010008F0
:10010000FB010008FB010008FB010008FB010008DF
:10011000FB010008FB010008FB010008FB010008CF
:10012000FB010008FB010008FB010008FB010008BF
:10013000DFF810D000F03AFD00480047894B000876
:10014000AFF30080C0570020224B19680868B0E860
:10015000F00F80F30988BFF36F8F4FF0000080F33A
:1001600011884EF00D0E7047000000000648006830
:10017000006880F3088862B661B6BFF34F8FBFF3A3
:100180006F8F00DF00BF00BF08ED00E0EFF30980D4
:10019000BFF36F8F0F4B1A6820E9F00F106008B59E
:1001A0004FF0BF0080F31188BFF34F8FBFF36F8F05
:1001B00005F038FB4FF0000080F31188BDE80840DF
:1001C00019680868B0E8F00F80F30988BFF36F8FF3
:1001D000704700BFB4010020EFF3058070470000B6
:1001E0000648804706480047FEE7FEE7FEE7FEE7D1
:1001F000FEE7FEE7FEE7FEE7FEE7FEE72D3D00082F
:100200003101000838B5D0E90221491E01EB410156
:1002100002EBC1014268C1EB011102EB81010268EE
:10022000C1EB011102EB8102D0E9043101EB410184
:1002300003EB81013023A1F5527191FBF3F4174DCB
:100240006C4302EBC41291FBF3F403FB1411009214
:100250001A2902DB124B1A4400920C2291FBF2F392
:10026000104C6343009C04EBC313009391FBF2F327
:1002700002FB13110C4A08E0491E40F2A324535C10
:100280006343009C04EBC31300930029F4DC014694
:10029000684600F099FB009838BD00003F0C0F0045
:1002A0008051010067C203009C70000840EA01030E
:1002B0009B0703D009E008C9121F08C0042AFAD21C
:1002C00003E011F8013B00F8013B521EF9D27047E0
:1002D000D2B201E000F8012B491EFBD27047002288
:1002E000F6E710B513460A4604461946FFF7F0FF35
:1002F000204610BD30B505462A460B4612F8010BC4
:1003000013F8014B08B1A042F8D01CB1002802D06C
:100310006D1CF1E7284630BD421C10F8011B002976
:10032000FBD1801A704710B5002200E0521C835C9C
:100330008C5CA34201D1002BF8D1D8B2E1B2401AB3
:1003400010BDF0B480EA0102D40F4200B2EB410FBD
:1003500002D20246084611464A0042D0C30DDDB221
:10036000C1F3C752AD1A202D35DAC1F3160141F49D
:10037000000204B15242C5F1200602FA06F12A41F8
:100380001044B3EBD05F23D0C4B1012DA0EBC35018
:1003900009DCF0BC4FF0004202EAC352DBB200F5C8
:1003A000000000F060BB400000F1807000EBC35023
:1003B000A0F1807040EAD170490009E0490841EAA3
:1003C000C071A0EBC35000F50000400800EBC35023
:1003D000F0BC00F03FBB6142012202EB4101001B77
:1003E000F6E7F0BC704781F00041AAE780F00040DA
:1003F000A7E780EA010210B502F00043400022D0D6
:100400004A001FD0010E01EB1261C0F35600C2F387
:10041000560240F4000042F40002A0FB0220000457
:100420007F39140400D0401C50EA124001D440002F
:10043000491EC2B20C0604EBD010401C4008802AB2
:1004400002D003E0002010BD20F00100002900DAF6
:100450000020184310BD30B480EA010202F00045CC
:1004600030F0004221F0004013D090B1C30DD40D04
:10047000C2F31601C0F31600E41A41F4000140F47F
:1004800000027D34914201D3641C00E04900002C3D
:1004900002DA30BC002070474FF400000023914284
:1004A00001D3891A034340084FEA4101F7D151B102
:1004B000914202D14FF0004105E002D24FF001011C
:1004C00001E06FF0010103EBC450284430BC00F0A0
:1004D000C1BA2DE9FE4F804681EA0300C00F0C46E9
:1004E000009021F0004123F00045B8EB0200A94143
:1004F00005D24046214690461C460B46024623F054
:100500000040104347D0270DC7F30A00C3F30A5138
:100510000290401A019040286BDAC3F3130040F4B4
:10052000801B0098924620B10023D2EB030A63EBB4
:100530000B0B01985946C0F14002504600F00DFAED
:1005400006460D4650465946019A00F025FA10EB32
:1005500008006141002487EA115284EAE7731A43D4
:1005600040D0009A62B3019A012A4FEA075215DC83
:10057000001B61EB02014FF0004202EA0752CDE995
:100580000042001C41F5801132462B4600F0A8FACB
:1005900003B0BDE8F08F40462146F9E7001B61EB50
:1005A0000201001C41F5801300185B412018A2F5E0
:1005B000001747EB030140EAD570B6196D4111E011
:1005C0006D084FEA360645EAC0754FEA0752001B30
:1005D00061EB0201001C41F5801149084FEA30002F
:1005E0000019514132462B4603B0BDE8F04F00F0F0
:1005F00068BA0098012240000023D0EB020263EBAE
:10060000E073009821464FEAE074B8EB000061EB1C
:100610000401E9E783F000435BE781F0004158E71C
:100620002DE9FE4F81EA030404F0004421F000416B
:1006300000944FF0000B23F0004350EA01045ED019
:1006400052EA03045BD0C3F30A54C1F30A552C44A5
:10065000A4F2F3340194A0FB0254C1F3130141F45A
:100660008011C3F3130343F4801301FB024400FB26
:10067000034E840A970A44EA815447EA8357A4FB4D
:10068000076802958D0A05FB07854FEA932C04FB4A
:100690000C542705029D4FEA065847EA1637B5EB7A
:1006A00008056EEB070C870E920E47EA811742EAA7
:1006B0008312A7FB0201B6EB0B0164EB00042B0DC8
:1006C00043EA0C335E1844EB1C50DA465146E7FB14
:1006D0000201C5F313044FEA0B3343EA14534FEA04
:1006E0000432019C43EA0603A4F10C040294009C2A
:1006F000CDE900B400F0F4F903B0BDE8F08F0020BC
:100700000146F9E72DE9F04D81EA030404F0004BBE
:1007100021F0004514464FF0000A23F0004150EA52
:10072000050220D054EA01021DD0C5F30A57024643
:10073000C5F31303C1F31300C1F30A5640F4801547
:1007400043F48013A7EB0608101BD64608F2FD38C9
:1007500073EB050002D308F1010801E092185B4138
:10076000B8F1000F03DA00200146BDE8F08D00204B
:100770004FF48011064684460EE0171B73EB050705
:1007800005D3121B63EB050306434CEA010C490831
:100790004FEA300092185B4150EA0107EDD152EA6E
:1007A000030012D082EA040083EA0501084305D061
:1007B000101BAB4106D20122002306E000224FF0BD
:1007C000004302E06FF0010253101AEB06004CEBFD
:1007D000085110EB0A0041EB0B01BDE8F04D00F0B1
:1007E00070B9C10F80EAE0700844CA07962300215F
:1007F00000F039B900F0004220F00040C10DC0F314
:10080000160040F400007F2901DA00207047962985
:1008100003DCC1F19601C84001E096398840002A06
:10082000F4D04042704720F00040C10DC0F31600E4
:1008300040F400007F2901DA00207047962903DC8C
:10084000C1F19601C840704796398840704700F062
:10085000004230F000400AD0C10D01F56071C0F3D4
:10086000160042EA0151C2084007114370470020B8
:100870000146704730B5041E71F1000404DB4FF0EF
:100880000044404264EB0101141E73F1000405DBD7
:100890001C464FF00043524263EB0403994208BFE9
:1008A000904230BD002801DBC0F10040002901DB8F
:1008B000C1F1004181427047002801DBC0F10040D6
:1008C000002901DBC1F100418842704730B50B4679
:1008D000014600202022012409E021FA02F59D4270
:1008E00005D303FA02F5491B04FA02F52844151E44
:1008F000A2F10102F1DC30BD2DE9F05F05460020D8
:1009000092469B4688460646814640241BE0284680
:1009100041464746224600F02FF853465A46C01A31
:10092000914110D311461846224600F016F82D1AB0
:1009300067EB01084F4622460120002100F00DF828
:1009400017EB00094E41201EA4F10104DFDC4846EC
:1009500031462A464346BDE8F09F202A04DB203A70
:1009600000FA02F1002070479140C2F1200320FA02
:1009700003F3194390407047202A04DB203A21FA00
:1009800002F00021704721FA02F3D040C2F12002A8
:100990009140084319467047202A06DBCB17203ABE
:1009A00041FA02F043EAE07306E041FA02F3D04074
:1009B000C2F120029140084319467047014900F0F6
:1009C00003B800009053002010B500683C22B0FB33
:1009D000F2F302FB1303B0FBF2F00B60B0FBF2F397
:1009E00002FB1303B0FBF2F018224B60B0FBF2F3F2
:1009F00002FB1303B0FBF2F0021D8B600723B2FB76
:100A0000F3F403FB1422800040F2B55300F66C307F
:100A10008A61B0FBF3F2B0FBF3F403FB1400443241
:100A200080084A61C8613B2802D3920700D0401C6D
:100A30000022074C13460A61E25C824203D8801A06
:100A40005B1C0B61F8E7401CC860084610BD000045
:100A5000A87000080029A8BF7047401C490008BFC3
:100A600020F00100704710B4B0FA80FC00FA0CF0DE
:100A700050EA010404BF10BC704749B1CCF1200416
:100A800021FA04F411FA0CF118BF012121430843A3
:100A9000A3EB0C01CB1D4FEA00614FEA102042BFCF
:100AA000002010BC704700EBC35010440029A4BFC5
:100AB00010BC7047401C490008BF20F0010010BC6A
:100AC000704710B5141E73F1000408DA401C41F1A0
:100AD000000192185B411A4301D120F0010010BDC2
:100AE0002DE9F04D92469B4611B1B1FA81F202E038
:100AF000B0FA80F220329046FFF72FFF04460F46EF
:100B000040EA0A0041EA0B0153465A46084313D013
:100B1000114653EA010019D0C8F140025046FFF7D0
:100B20002BFF05460E46504659464246FFF715FF35
:100B3000084305D0012004E020463946BDE8F08D89
:100B40000020054346EAE0762C4337430A986305C4
:100B5000E40AA0EB08000022FD0A44EA47540A30E8
:100B600002D500200146E9E7010510196941DDE9D8
:100B7000084500196941BDE8F04DA2E7C1F30A52EA
:100B8000C1F3130140F2FF3341F480119A4202DABB
:100B900000200146704740F233439A42A2F23342AA
:100BA00002DC5242FFF7E8BEFFF7D7BE064C074D06
:100BB00006E0E06840F0010394E80700984710342D
:100BC000AC42F6D3FFF7B8FA84710008A4710008AC
:100BD00070B58C1810F8015B15F0070301D110F8FF
:100BE000013B2A1106D110F8012B03E010F8016B2C
:100BF00001F8016B5B1EF9D12B0705D40023521EAF
:100C00000DD401F8013BFAE710F8013BCB1A921C16
:100C100003E013F8015B01F8015B521EF9D5A14214
:100C2000D8D3002070BD00002DE9FF4701F0B2FDD0
:100C3000D9A0082110238022CDE900100021084608
:100C400001F0D8FA02F028FA1FE04FF4C87003F060
:100C50009DF8D7A0082110238022CDE90010194665
:100C6000002001F0C7FA02F017FA4FF4487003F0C1
:100C70008DF8D4A0082110238022CDE90010202176
:100C8000002001F0B7FA02F007FAD34802F0E6FAC2
:100C90000028DAD1D1A0082110234022CDE900108C
:100CA0001946002001F0A6FA02F0F6F9CF4802F04A
:100CB0004FFC054615B1284602F0C0FFCC4802F0B3
:100CC00077FB0546FDB9CA480088C8490988401A1B
:100CD000C8A108221023CDE9002102905022202132
:100CE000002001F087FAC2488078C6A108221023AC
:100CF000CDE90021029050223021002001F07AFA43
:100D000002F0CAF902E0284602F098FF002641E10D
:100D100001F050F80128FAD13BE1052E72D2DFE84C
:100D200006F0033A72A8CB0008F1010000F0FF08BA
:100D300001F030FDB7A0082110234022CDE90010BA
:100D40000021084601F056FA02F0A6F902F069FA0D
:100D50000446E4B900F034FA012002F03FFA0446F8
:100D600000F024FA7CB9AFA0082110234022CDE97D
:100D700000100021084601F03DFA02F08DF94FF015
:100D80000008012606E0204602F058FF02E0204657
:100D900002F054FFFCE008F1010000F0FF08A5A0FC
:100DA000082110238022CDE900100021084601F01F
:100DB00021FA02F071F902F034FA0446F4B900F0B5
:100DC000FFF9022002F00AFA044600F0EFF98CB9AC
:100DD00001F0E0FC93A0082110234022CDE900108F
:100DE0000021084601F006FA02F056F94FF000081B
:100DF000022606E0204602F021FF02E0204602F033
:100E00001DFFC5E0C2E092A0082110236022CDE9B9
:100E100000100021084601F0EDF902F03DF9002034
:100E2000039003A802F09AFA04467CB901F0B2FCE0
:100E30008CA0082110234022CDE900100021084693
:100E400001F0D8F902F028F9032611E089A0082161
:100E500010238022CDE900100021084601F0CAF9D4
:100E600002F01AF9204602F0E9FE4FF000080026D1
:100E70008EE001F08FFC76A0082110236022CDE9DE
:100E800000100021084601F0B5F902F005F902F062
:100E900011FB04465CB97EA0082110238022CDE915
:100EA00000100021084601F0A5F9042603E0002601
:100EB000204602F0C3FE6BE07CA0082110236022D4
:100EC000CDE900100021084601F094F97CA008212A
:100ED00010236022CDE900101946002001F08AF9A4
:100EE00002F0DAF800BF00F013FE87B200F010FE47
:100EF000814677A0082110233022CDE90109009115
:100F00002021002001F076F902F0C6F800F052FF2F
:100F100018B100207049086003E035480088B842E5
:100F2000E1DC00BF3946022002F0E1FA04463CBB96
:100F300001F030FC69A0082110236022CDE90010E7
:100F40000021084601F056F902F0A6F8274802F001
:100F5000FFFA2748008825490988401A64A1082219
:100F60001023CDE90021029080221946002001F0D3
:100F700041F902F091F840F2DC5002F007FF03E083
:100F80000026204602F05AFE0A2601E0BDE8FF874F
:100F900000BFC2E6BCE60000E4B88E4153363038EC
:100FA000E6A8A1E59D97E68FA1E6898B2E000000BB
:100FB000E69CAAE6A380E6B58BE588B0E6A8A1E5A5
:100FC0009D972100E5B09DE8AF95E8BF9EE68EA510
:100FD000E6A8A1E59D972E0030000020E9809AE860
:100FE000AEAFE68890E58A9F0000000084000020F4
:100FF000BC0E0020E5BA93E5AEB9E9878F3A2564C7
:1010000000000000E5AFB9E6AF94E7AD89E7BAA705
:101010003A256400E8AFB7E68C89E68C87E7BAB971
:1010200000000000E68C87E7BAB9E6ADA3E5B8B8E2
:1010300000000000E8AFB7E68C89E5868DE68C8974
:10104000E4B880E6ACA1E68C87E7BAB900000000FE
:10105000E5AFB9E6AF94E4B8A4E6ACA1E68C87E7C7
:10106000BAB90000E5AFB9E6AF94E68890E58A9F8B
:1010700000000000E5AFB9E6AF94E5A4B1E8B4A57F
:10108000EFBC8CE8AFB7E9878DE696B000000000B2
:10109000E7949FE68890E68C87E7BAB9E6A8A1E6D0
:1010A0009DBFE68890E58A9F00000000E8AFB7E8A2
:1010B000BE93E585A5E582A8E5AD9849440000000A
:1010C000303D3C204944203C3D323939000000008D
:1010D00049443A25640A000080000020E5BD95E5FA
:1010E00085A5E68C87E7BAB9E68890E58A9F000077
:1010F000E589A9E4BD99E68C87E7BAB9E695B03AE7
:101100002564000008B501460020009003480090C7
:101110000098084400900098008808BD006C0040CA
:1011200008B500220092044A0092009A02440092FC
:10113000009A116008BD0000006C004010B5042149
:10114000014800F0E7FD10BD0014014008B5012181
:10115000202002F0BDFA0420ADF8000028208DF810
:10116000030003208DF802006946024800F0FEFCEF
:1011700008BD00000014014008B50121102002F054
:10118000A7FA10208DF803004001ADF800000320FD
:101190008DF802006946044800F0E8FC4FF4007145
:1011A000014800F0C2FD08BD0010014010B54FF429
:1011B0000071024800F0B9FD10BD000000100140B0
:1011C00010B54FF40071024800F0ADFD10BD0000F5
:1011D0000010014000BFFEE770470000FEB501F0BF
:1011E000D9FA3CA0082110234022CDE900100021AB
:1011F000084600F0FFFF3BA0082110236022CDE944
:1012000000101946002000F0F5FF01F045FF3220E4
:1012100002F0BCFD00BF00F07BFC84B200F078FC63
:10122000064635A0082110233022CDE901060091A1
:101230002021002000F0DEFF01F02EFF00F0BAFDBB
:1012400018B100202E49086002E0B4F5803FE2DBCF
:1012500000BF4FF6FF70844200D1FEBD142C03D1B5
:1012600001F09FFF054604E00121204601F063FFE5
:10127000054675B901F08EFA22A0082110234022FC
:10128000CDE900100021084600F0B4FF01F004FF92
:1012900002E0284602F0D2FC4FF4966002F076FDA0
:1012A0001C4802F055F91B4800881BA10822102396
:1012B000CDE90021029060221946002000F09AFF3B
:1012C00001F0EAFE00BF00F0A1FD0028FBD000BF46
:1012D000C3E70000E588A0E999A4E68C87E7BAB9DE
:1012E00000000000E8AFB7E8BE93E585A5E68C876F
:1012F000E7BAB9494400000049443A25640A0000AD
:1013000080000020E588A0E999A4E68890E58A9FFE
:101310000000000084000020E68C87E7BAB9E4B83A
:10132000AAE695B03A25640010B50446FFF706FF1B
:1013300038B1207828B909A000F090F80120207079
:101340000AE0FFF7FBFE38B92078012804D108A095
:1013500000F084F80020207010BD0000444154418A
:101360003A646F6F722B6D65692072656E000000C4
:10137000444154413A444F4F522B796F7520726566
:101380006E00000010B514A002F0B2FB00BF4FF4D5
:101390007A7213A113A002F0D7FA0128F7D100BF87
:1013A0004FF47A720EA114A002F0CEFA0128F7D100
:1013B00000BF4FF47A720AA113A002F0C5FA012807
:1013C000F7D100BF4FF47A7205A119A002F0BCFA60
:1013D0000128F7D110BD0000415445300D0A00002E
:1013E0004F4B000041542B43574D4F44455F4355ED
:1013F000523D330D0A00000041542B4349504D55D6
:10140000583D310D0A00000041542B43574A4150CA
:101410005F4355523D227869616F736F6E67222C6E
:10142000223132333435363738220D0A00000000BD
:1014300041542B43495053544152543D312C225472
:101440004350222C223139322E3136382E342E316F
:10145000222C383038300D0A0000000010B5044648
:1014600000BF4FF47A7205A105A002F06DFA0128C1
:10147000F7D1204602F03CFB10BD00003E0000000A
:1014800041542B43495053454E4445583D312C312E
:10149000390D0A0010B54FF4006000F075F801280E
:1014A00010D10A2002F072FC4FF400612E4800F0C7
:1014B00031FC10B901202D4908704FF4006000F094
:1014C0005DF850E04FF4806000F05EF801284AD1EA
:1014D0008102254800F01EFCA0B92548008888B983
:1014E00023480088401C00B221490880002021497F
:1014F00008804FF480511C4800F00CFC012801D1F9
:101500001C4908804FF48061174800F003FC012853
:1015100025D117480088012821D1002014490880CE
:101520001448008801280AD101030F4800F0F2FB9B
:1015300028B911480088401C00B20F4908800D48A6
:10154000008860B94FF48051074800F0E3FB0128A0
:1015500005D109480088401E00B2074908804FF4B1
:10156000806000F00BF810BD001001402600002044
:1015700024000020220000202000002001490860F3
:101580007047000014040140014600200022074B70
:101590001B6803EA0102054B14331B680B4013B1AF
:1015A0000AB1012000E00020704700000004014063
:1015B000002123498279002A3AD00A46126803683A
:1015C0009A430B461A600A1D126803689A430B1D62
:1015D0001A60027911440A6803681A430A60184ABB
:1015E0000832126803689A43154B08331A601A1DB3
:1015F000126803689A43124B0C331A604279102A1E
:101600000ED11A1F126803681A430D4B08331A6073
:101610001A1D126803681A43094B0C331A600DE057
:101620000749427911440A6803681A430A6005E0D1
:10163000027911440A6803689A430A6070470000FF
:10164000000401400349B1F900000021014A118062
:1016500070470000200000201FB50121102002F07B
:1016600037F80121084602F033F848208DF80F00C2
:101670004FF4A050ADF80C0003208DF80E0003A924
:10168000244800F073FA48208DF80F004FF40060F2
:10169000ADF80C0003208DF80E0003A91D4800F0E2
:1016A00065FA0A21022000F041FA0B21022000F025
:1016B0003DFA4FF48060019001208DF80A0000206F
:1016C0008DF8080010208DF8090001A8FFF770FFC1
:1016D0004FF40060019001208DF80A0000208DF881
:1016E00008000C208DF8090001A8FFF761FF4FF4F6
:1016F000A06001F045F828208DF8000001208DF849
:1017000003008DF8010002208DF80200684600F009
:10171000FFFF1FBD00100140014621293ED2DFE836
:1017200001F011131517191B1D1F212325273D3DFE
:101730003D3D292B3D3D3D2D3D3D2F313335373D41
:101740003D393B0017A02BE017A029E01CA027E0A3
:1017500022A025E028A023E033A021E03EA01FE046
:1017600047481DE047A01BE04AA019E04EA017E043
:1017700052A000BF5EA013E062A011E067A00FE0DE
:1017800073A00DE077A00BE07AA009E07EA007E04F
:1017900084A005E08AA003E08DA001E090A000BF36
:1017A00000BF70474F4B0000E695B0E68DAEE58C6C
:1017B00085E68EA5E694B6E99499E8AFAF000000FF
:1017C000E4BCA0E6849FE599A8E4B88AE6B2A1E665
:1017D0009C89E6898BE68C8700000000E5BD95E5D5
:1017E00085A5E68C87E7BAB9E59BBEE5838FE5A4BE
:1017F000B1E8B4A500000000E68C87E7BAB9E59B24
:10180000BEE5838FE5A4AAE5B9B2E38081E5A4AA89
:10181000E6B7A1E8808CE7949FE4B88DE68890E76E
:1018200089B9E5BE81000000E68C87E7BAB9E59B7F
:10183000BEE5838FE5A4AAE6B9BFE38081E5A4AA4B
:10184000E7B38AE8808CE7949FE4B88DE68890E758
:1018500089B9E5BE81000000E68C87E7BAB9E59B4F
:10186000BEE5838FE5A4AAE4B9B1E8808CE7949F34
:10187000E4B88DE68890E789B9E5BE8100000000F4
:10188000B4700008E68C87E7BAB9E4B88DE58CB986
:10189000E9858D00E6B2A1E6909CE7B4A2E588B0A8
:1018A000E68C87E7BAB90000E789B9E5BE81E59023
:1018B00088E5B9B6E5A4B1E8B4A50000E8AEBFE993
:1018C00097AEE68C87E7BAB9E5BA93E697B6E59C9A
:1018D000B0E59D80E5BA8FE58FB7E8B685E587BAB4
:1018E000E68C87E7BAB9E5BA93E88C83E59BB40048
:1018F000E588A0E999A4E6A8A1E69DBFE5A4B1E822
:10190000B4A50000E6B885E7A9BAE68C87E7BAB9BE
:10191000E5BA93E5A4B1E8B4A5000000E7BC93E5FF
:1019200086B2E58CBAE58685E6B2A1E69C89E69C9E
:1019300089E69588E58E9FE5A78BE59BBEE8808CC0
:10194000E7949FE4B88DE68890E59BBEE5838F0021
:10195000E8AFBBE5869920464C41534820E587BA5D
:10196000E9949900E69CAAE5AE9AE4B989E99499CC
:10197000E8AFAF00E697A0E69588E5AF84E5AD98BF
:10198000E599A8E58FB70000E5AF84E5AD98E59946
:10199000A8E8AEBEE5AE9AE58685E5AEB9E99499CC
:1019A000E8AFAF00E8AEB0E4BA8BE69CACE9A1B515
:1019B000E7A081E68C87E5AE9AE99499E8AFAF009D
:1019C000E68C87E7BAB9E5BA93E6BBA10000000050
:1019D000E59CB0E59D80E99499E8AFAF0000000078
:1019E000E6A8A1E59D97E8BF94E59B9EE7A1AEE838
:1019F000AEA4E7A081E69C89E8AFAF0030B504460D
:101A000004254FF4302000F06FF80546042D17D15F
:101A10000C48006940F002000A4908610846446128
:101A2000006940F0400008614FF4302000F05CF89D
:101A300005460448006941F6FD7108400149086106
:101A4000284630BD0020024004200B49C96801F03F
:101A5000010109B101200EE00749C96801F0040144
:101A600009B1022007E00449C96801F0100109B179
:101A7000032000E004207047002002400348006972
:101A800040F08000014908617047000000200240DA
:101A900070B504460D460426F00200F025F806460F
:101AA000042E11D10948006940F00100074908617E
:101AB0002580F00200F018F806460448006941F657
:101AC000FE71084001490861304670BD00200240A7
:101AD000024803494860034848607047230167454E
:101AE00000200240AB89EFCD00B502460423FFF78A
:101AF000ABFF034603E0FFF7A7FF0346521E012B8F
:101B000001D1002AF7D102B90523184600BD000013
:101B100010B5FFF797FD04490968084402490860B9
:101B20000846006810BD00008000002030B500228B
:101B30008B071C0F0F2303FA04F20B4B8C1053F886
:101B400024309343084C8D1044F8253023468C10E4
:101B500053F824308C07240F00FA04F42343024C7A
:101B60008D1044F8253030BD080001402DE9F041CA
:101B7000024600250026002000230024002791F8BB
:101B800003C00CF00F0591F803C00CF0100CBCF171
:101B9000000F03D091F802C04CEA050591F800C08F
:101BA000BCF1000F31D0146800202BE04FF0010C85
:101BB0000CFA00F3B1F800C00CEA03069E4220D1F3
:101BC00083004FF00F0C0CFA03F7BC4305FA03FC3B
:101BD0004CEA040491F803C0BCF1280F06D14FF081
:101BE000010C0CFA00FCC2F814C00AE091F803C022
:101BF000BCF1480F05D14FF0010C0CFA00FCC2F803
:101C000010C0401C0828D1D31460B1F800C0BCF14A
:101C1000FF0F34DD546800202EE000F1080C4FF077
:101C2000010808FA0CF3B1F800C00CEA03069E4262
:101C300021D183004FF00F0C0CFA03F7BC4305FAD7
:101C400003FC4CEA040491F803C0BCF1280F05D151
:101C500000F1080C08FA0CF8C2F8148091F803C0DF
:101C6000BCF1480F07D100F1080C4FF0010808FA49
:101C70000CF8C2F81080401C0828CED35460BDE890
:101C8000F0810000F0B50A46002300240021002561
:101C900000F00046B6F1004F02D11D4EF16901E09F
:101CA0001B4E7168C0F3034583B200F44016B6F5CD
:101CB000401F08D121F07061154E766826F07066DD
:101CC000134F7E6012E000F48016B6F5801F06D137
:101CD000032606FA05F4A14341F0706106E0460DC3
:101CE000360103FA06F6B14341F0706122B1460DA8
:101CF000360103FA06F6314300F00046B6F1004F14
:101D000002D1034EF16101E0014E7160F0BD0000AF
:101D1000000001400246002093680B400BB10120F7
:101D200000E00020704741617047016170470AB1CF
:101D3000016100E04161704700BFFEE77CB50546E8
:101D400002F088F9EF208DF8000001208DF80100E5
:101D500016480068000E8DF8020014480068000C58
:101D60008DF8030011480088000A8DF804000F4820
:101D700000788DF8050007208DF8060000208DF80A
:101D800007000DE0012002F001F802F0F5F838B18B
:101D900069460748FEF7AEFA04460CB120467CBD02
:101DA000681E80B2051EEDD100BFF8E730000020AC
:101DB000F40D0020034801780020024A1070084604
:101DC000704700002600002010B5002401210A48B9
:101DD000FFF7A0FF68B9142001F0D8FF00BF012170
:101DE0000548FFF797FF0028F9D0142001F0CEFF37
:101DF0000124204610BD00000008014010B5044633
:101E0000204602F0D3F810BD00BFFEE710B5FFF783
:101E1000DBFF40B210BD00002DE9F04704460D463F
:101E2000164629462046FEF7E1FA07464FF07E5156
:101E3000FEF742FD12D229462046FEF7D7FA814628
:101E40003146FEF7D6FA80464FF07E51FEF779FA1A
:101E500007462146FEF775FA04461CE0294620464F
:101E6000FEF7C4FA07460D49FEF71CFD12D22946BB
:101E70002046FEF7BBFA81463146FEF7BAFA8046A5
:101E80004FF07E51FEF7AFFA07462146FEF759FAAA
:101E9000044600E02C462046BDE8F087000080BFE5
:101EA00010B5FFF787FF40B210BD000010B5024823
:101EB00000F0CCF910BD00001801002008B500F0BA
:101EC00069FC38E008231CA20021084600F07AFFD4
:101ED000082000901A48028804230021382000F0CE
:101EE0009DFE082317A21021002000F06BFF0820A0
:101EF000009013480830028804231021282000F0A5
:101F00008DFE082000900E480A300288042310211C
:101F1000482000F083FE0820009009480C30026839
:101F200008232021002000F079FE01F0B5F8FFF72A
:101F30006DFF00B108BDC5E7465F53495A453A00F9
:101F4000E0F7FF1F555F49443A0000001CB500F060
:101F500021FC01203249087032A0082110234022C0
:101F6000CDE900100021202000F044F931A0082123
:101F700010237022CDE900101946002000F03AF934
:101F8000082331A22021002000F01CFF47E000F0D0
:101F900073FB082000903048028804231021084673
:101FA00000F0EAFE082000902B484288022310210E
:101FB000402000F0E1FE082000902748828802239C
:101FC0001021602000F0D8FE082000902248C2882E
:101FD00002232021084600F0CFFE082000901E4872
:101FE000028902232021382000F0C6FE082000903C
:101FF0001948428902232021502000F0BDFE01F043
:102000004BF8FFF7D7FE012801D100F017F9FFF7D1
:10201000FDFE00B11CBD4FF4967003F049FBB6E71E
:1020200086000020E699BAE883BDE997A8E9948183
:1020300000000000202058585858E5B9B45858E618
:102040009C885858000000002020202058583A58FA
:10205000583A585800000000140000200EB500F057
:1020600099FB9DE04F48007808B900F093FB4E487B
:1020700000684EA108221023CDE9002102908022A1
:102080000021084600F0B6F801F006F8464800685E
:10209000B0F57A7F13DAFFF78DFE012807D14248A9
:1020A000006800EB800040003F49086015E0FFF742
:1020B000C9FA3D49096808443B4908600DE0FFF74B
:1020C00079FE012802D13F49087006E0FFF7BAFA0D
:1020D00035490968084434490860324800780128C5
:1020E00014D138480078012810D100202D490870FB
:1020F0003449087001F0BEFD2B4800883249488001
:1021000001F0FCFD00202849086045E026480068F1
:1021100040F24D1188421FD12B4840882BA1082244
:102120001023CDE90021029080221946002000F002
:1021300061F82CA0082110233022CDE900102021C5
:10214000002000F057F800F0A7FF002016490860B3
:102150000120144908701FE012480078E0B91948BE
:102160000078012818D1184840880F49096888422A
:102170000DD100200C490860124908701C49086004
:10218000FFF71EF81A48006801F0C6FC04E00020C2
:10219000054908600B490870FFF738FE00B10EBD15
:1021A00060E700007C00002078000020E8AFB7E87E
:1021B000BE93E585A5E5AF86E7A0813A2530346476
:1021C0000000000074000020F4010020E58E9FE66E
:1021D0009DA5E79A84E5AF86E7A0813A253034646F
:1021E00000000000E8AFB7E4BFAEE694B90000001D
:1021F000340000202DE9F0418CB004460D4616460F
:102200001F46DDF8488014A8039004A8039A139988
:1022100002F02EF80020039004A83B4632462946DF
:10222000CDE90008204600F0AFFE0CB0BDE8F0811B
:1022300010B5FFF707FA40B210BD000010B5024814
:1022400000F004F810BD0000880000202DE9F04FD8
:102250008BB004464FF0000B002504200A904FF08D
:1022600001084FF00009002600BF01E0701C46B2D3
:1022700004EB0610006800782E28F7D1701E46B2D5
:10228000804890F8231090F91F00A1EB40007D4991
:1022900091F91E1090FBF1F04FFA80FAF1E0FFF790
:1022A000FFFD58B104EB0810406820B104EB0811A1
:1022B0004868804702E00BB0BDE8F08FFFF7A6FD4D
:1022C00000B1F8E7FFF7B4FF8346BBF1000F1DD064
:1022D00009EB0B004FFA80F908EB0B004FFA80F87E
:1022E000B04500DDB046B8F1000F01DA4FF000084C
:1022F000D14503DBAAF101004FFA80F9B14500DDB9
:10230000B146B9F1000F01DA4FF0000900F042FACE
:10231000A8EB090045B20A98281A07D00A98281A8B
:102320005849897F484340B209900A95099868B195
:102330000998FEF756FA0890524881690898FEF706
:102340008AF80746FEF756FA40B209904FF0FF3779
:1023500057E0E819002800DA51E0E819B04200DD42
:1023600053E0E91904EB011189680868FEF76FFA78
:10237000CDE90601CDE90201E81904EB001000687F
:102380004049097FCDE900103E4890F92100DFF86F
:10239000F4C09CF91FC06044DFF8E8C09CF91EC07F
:1023A00007FB0C0C09988444364890F91E00DFF8AE
:1023B000D4E09EF91DE0A0EB0E00089000EBD07079
:1023C0000CEB6000C1B22F4890F822C0C07FACEB8C
:1023D0004000C2B22B4890F82000801CDFF8A4C057
:1023E0009CF81FC06044C0B205902648837F0598C2
:1023F000FFF700FFE91904EB0111087300BF781C17
:1024000047B20AF101008742A3DB00BF1D4991F9E1
:102410001E00FEF7E6F9074604EB0811097B194A8E
:1024200092F91C205143091D164A92F91F20881861
:10243000FEF7D7F91349089091F92110114A92F942
:102440001F2011440F4A92F91E2009FB0210FEF7CB
:10245000C8F90C49079091F920100A4A92F91F20F7
:102460008818FEF7BEF90690064840690549097CC0
:102470003B46CDE9001006A807C800F015F800F0AB
:102480000BFE0CE75000002010B50248FFF7DEFEFF
:1024900010BD00006801002010B50248FFF7D6FE0D
:1024A00010BD0000C80000202DE9FF4F81B0054697
:1024B00016461F460E9C4449086829460F9AFFF7A6
:1024C000ABFC4149086048680F9A0299FFF7A4FCE9
:1024D0003D494860886831460F9AFFF79DFC3A49AC
:1024E0008860C86839460F9AFFF796FC3649C8607D
:1024F000ECB9C868FEF797F900F0FF083249886820
:10250000FEF791F900F0FF092F494868FEF772F9CC
:102510000FFA80FA2C490868FEF76CF90FFA80FB75
:1025200043464A465146584600F0F4FA48E0012C2A
:1025300024D12549C8682549FDF755FFA10700901A
:10254000FDF789FF8346204841685846FDF7F9FEAC
:102550008246FEF74FF90FFA80F81B4A916810681F
:10256000FDF7EFFE8246FEF745F90FFA80F90623E4
:1025700017A24146484600F025FC21E0022C1FD15D
:102580001149C868FEF74FF900F0FF080E49886846
:10259000FEF749F900F0FF090B494868FEF72AF9F0
:1025A0000FFA80FA08490868FEF724F90FFA80FB51
:1025B000002043464A4651460090584600F06EF9C6
:1025C00005B0BDE8F08F0000500000200000C040C2
:1025D0003C2D000010B50446FFF77AFA2046FFF7BD
:1025E0000DFAFFF74BFA10BD70B504460D46FFF724
:1025F0006FFA29462046FFF74BFAFFF73FFA70BD06
:1026000001460888704710B50121C80601F050F84E
:102610000121080701F04CF8012001F043F80420E3
:10262000FEF770FD4AF2A551884220D0012001F04A
:10263000E7F800BF412001F0C5F80128FAD10002F7
:1026400001F0FEF8012001F0F5F801F047F901F082
:102650003BF947F6FF7001F027F901F035F900F07A
:102660002FF84AF2A5510420FEF75AFD03E001F0CD
:1026700035F901F029F910BD10B58CB001F0FCF866
:1026800000F5E1400B900BA8FEF798F904462C22C8
:1026900021466846FDF70AFE059800F26C7007496E
:1026A00008800498401C4880039888800298C8805D
:1026B00001980881009848810CB010BD14000020DA
:1026C00010B58CB010480088A0F26C7006900E48CF
:1026D0004088401E05900C48808804900A48C088B5
:1026E000039009480089029007484089019001A899
:1026F000FDF788FDA0F5E144204601F0C7F801F0A0
:10270000E3F80CB010BD000014000020704700007A
:1027100070B5002100230F22C47804B3154C24683F
:1027200004F4E064C4F5E064210AC1F10403CA4082
:10273000447804FA03F184781440214309010E4CD3
:102740000678A155047804F01F050124AC400578F3
:102750006D11AD0005F1E025C5F8004109E00478F0
:1027600004F01F050124AC40044D0678761145F8AD
:10277000264070BD0CED00E000E400E080E100E0E8
:1027800002490143024A1160704700000000FA0547
:102790000CED00E000200CE0002106E00022064BDA
:1027A00003EBC0135A544A1CD1B28029F6DB421CF9
:1027B000D0B20828F0DB7047F40500202DE9F04383
:1027C00004460D4616461F46284638E0224631E0AC
:1027D000002A2DDB7F2A2BDC002829DB3F2827DC81
:1027E0004FEAE07C00EB5C7C4FEAEC0CDFF85880B1
:1027F00008EBCC1C1CF802C003464FEAE07800EB63
:1028000058784FEAE808A0EBC8094FF0010808FA29
:1028100009F82CEA080C01464FEAE07800EB5878FA
:102820004FEAE808DFF8209009EBC81808F802C062
:10283000511C0AB2A1199142CADC411C08B2E91923
:102840008142C3DCBDE8F083F405002070B5034687
:10285000002B20DB7F2B1EDC00291CDB3F291ADC30
:10286000CC1701EB5474E4100B4D05EBC414E45C7D
:102870000A46CD1701EB5575ED10A1EBC5060125F4
:10288000B5402C430846CD1701EB5575ED10024EAF
:1028900006EBC515EC5470BDF40500202DE9F0479A
:1028A00005460E4617469846DDF820A0BAF1000FFF
:1028B00024D12C460CE031462046FFF7C7FF06EB3B
:1028C0000800401E01B22046FFF7C0FF601C04B2A2
:1028D000E819A042EFDC34460BE021462846FFF71A
:1028E000B5FFE919491E08B22146FFF7AFFF601C8A
:1028F00004B206EB0800A042EFDC14E02C460FE027
:10290000B14607E049462046FFF7A0FF09F1010064
:102910000FFA80F906EB08004845F3DC601C04B2AE
:10292000E819A042ECDCBDE8F087000038B50024CF
:1029300006E0002500E06D1CB5F57A7FFBD3641C32
:10294000B4F57A7FF5D30121102000F0C1FE1420E8
:102950008DF8030003208DF802001020ADF8000070
:1029600069460848FFF702F92020ADF800006946E3
:102970000448FFF7FBF8012000F0A2FB012000F063
:10298000A9FB38BD0010014070B50546002411E0D8
:1029900080212141294009B1012100E000210846A0
:1029A00000F098FB012000F08BFB002000F088FB7A
:1029B000601CC4B2082CEBDB012000F081FB00207E
:1029C00000F07EFB70BD10B5012000F083FB0120FC
:1029D00000F076FB002000F07DFB002000F070FB93
:1029E00010BD10B5002000F075FB012000F068FB61
:1029F000012000F06FFB10BD10B5FFF797FFAE2070
:102A000000F072FBD52000F06FFB802000F06CFB23
:102A1000A82000F069FB3F2000F066FBD32000F007
:102A200063FB002000F060FB402000F05DFBA12074
:102A300000F05AFBC82000F057FBDA2000F054FBEE
:102A4000122000F051FB812000F04EFBCF2000F05F
:102A50004BFBD92000F048FBF12000F045FBDB20C8
:102A600000F042FB302000F03FFBA42000F03CFBD4
:102A7000A62000F039FB8D2000F036FB142000F07A
:102A800033FBAF2000F030FBFFF784FE00F004FBC7
:102A900010BD00002DE9F84306460F46154698463E
:102AA00000240CE004EB840101EB4411124A881865
:102AB0002946FDF738FC00B90CE0601CC4B204EBF9
:102AC000840101EB44110C4A88180CA1FDF72BFC82
:102AD0000028E7D100BF04EB840000EB4410064956
:102AE0000844401D10231A4639460090304600F035
:102AF000C5F8BDE8F88300007A6300080000000014
:102B000010B50246012000E050430B1EA1F1010167
:102B1000FAD110BD2DE9F04304460D4616461F4676
:102B2000284638E0224631E0002A2DDB7F2A2BDCC4
:102B3000002829DB3F2827DC4FEAE07C00EB5C7CA7
:102B40004FEAEC0CDFF8588008EBCC1C1CF802C0F4
:102B500003464FEAE07800EB58784FEAE808A0EB2C
:102B6000C8094FF0010808FA09F88CEA080C014678
:102B70004FEAE07800EB58784FEAE808DFF8209059
:102B800009EBC81808F802C0511C0AB2A1199142F9
:102B9000CADC411C08B2E9198142C3DCBDE8F083FC
:102BA000F405002070B505460C4645F0B00000F075
:102BB0009BFA102141EA141000F096FA04F00F007D
:102BC00000F092FA70BD0000F8B506460F461446B4
:102BD0001D46082D0CD1A4F120000E4901EB001078
:102BE0001023082239460090304600F047F80FE0E5
:102BF000062D0DD1A4F1200000EB4000064901EBA9
:102C000040000823062239460090304600F036F88E
:102C1000F8BD0000505B0008406100082DE9F04756
:102C200006468A4691461F46DDF82080002421E0B2
:102C3000381B411E1020FFF763FFB9FBF0F000F0D6
:102C40000F050A2D0ADA05F13001CAB204FB08614A
:102C500008B243465146FFF7B7FF09E005F13701D7
:102C6000CAB204FB086108B243465146FFF7ACFF05
:102C7000601CC4B2BC42DBDBBDE8F0872DE9FF4F2E
:102C800080460E469146DDF834B0002500244A46C1
:102C900031464046039BFFF791FD00BF5EE00025F3
:102CA00058E008EB0500002852DB08EB05007F2800
:102CB0004EDC3046F11706EB5171C9100FB2F11717
:102CC00006EB5171C910A6EBC10A002E05DA781E79
:102CD00007B20AF108000FFA80FA3819002817DB4A
:102CE0003819072814DC3819224901EBC01008EB09
:102CF0000501405C04FB09511BF8011001FA0AF1BF
:102D0000084339191B4A02EBC11108EB050288542C
:102D10003819401C00281BDB3819401C072817DC19
:102D20003819401C134901EBC01008EB0501405C49
:102D300004FB09511BF80110CAF1080211410843B4
:102D40003919491C0B4A02EBC11108EB05028854E2
:102D5000681CC5B24D45A4DB601CC4B20399481E73
:102D6000C11700EB5171012202EBE101A14296DC97
:102D7000BDE8FF8FF40500202DE9F047064689469F
:102D800017461D46DDF82080002417E0281B411E51
:102D90000A20FFF7B5FEB7FBF0F00A21B0FBF1F215
:102DA00001FB120000F1300A04FB086108B243463F
:102DB00052464946FFF708FF601CC4B2AC42E5DB4F
:102DC000BDE8F0872DE9FE4F07468A46144698462F
:102DD0000025AB460026CBE0605D00F0800058B9CE
:102DE0004FF0010B2846691C8DB2205C8DF8040061
:102DF00000208DF805006BE0605D00F0E000C02869
:102E000014D14FF0020B2846691C8DB2205C8DF85E
:102E10000400605D00B9AFE02846691C8DB2205CFB
:102E20008DF8050000208DF8060051E0605D00F08F
:102E3000F000E0281DD14FF0030B2846691C8DB22D
:102E4000205C8DF80400605D00B995E02846691C9F
:102E50008DB2205C8DF80500605D00B98CE02846DD
:102E6000691C8DB2205C8DF8060000208DF80700EB
:102E70002EE0605D00F0F800F02826D14FF0040B42
:102E80002846691C8DB2205C8DF80400605D00B995
:102E900072E02846691C8DB2205C8DF80500605DEB
:102EA00000B969E02846691C8DB2205C8DF80600E7
:102EB000605D00B960E02846691C8DB2205C8DF829
:102EC000070000208DF8080002E0681C85B24FE082
:102ED000BBF1010F0BD19DF80420B91908B243468C
:102EE0005146FFF771FE06EB080086B23FE04FF057
:102EF00000090EE009EB890101EB4911204A88180D
:102F000001A9FDF710FA00B90EE009F101001FFA5E
:102F100080F909EB890101EB4911194A881819A1B7
:102F2000FDF701FA0028E5D100BFB8F1080F12D172
:102F300009EB890000EB491011490844401DB919FB
:102F4000009008B210231A465146FFF797FE06F18B
:102F5000100086B20BE0B8F1060F08D1B91908B21B
:102F600006233F225146FFF72FFEB01D86B200BF59
:102F7000605D00287FF430AF00BFBDE8FE8F000029
:102F80007A630008000000002DE9F84F8246884669
:102F900093469946DDE90A640025002774E0705DD8
:102FA0000A281BD1082C01D1102000E00820404441
:102FB00000F0FF08082C01D1102000E00820A9EB48
:102FC000000000F0FF09082C01D1102000E00820CB
:102FD000484500DD5BE00027681CC5B2781C6043F3
:102FE000584519DD082C01D1102000E0082040448C
:102FF00000F0FF08082C01D1102000E00820A9EB08
:10300000000000F0FF09082C01D1102000E008208A
:10301000484500DD3BE00027705D7E2828DD00206C
:103020000090705D8DF80000681CC5B2705D8DF871
:103030000100681CC5B2705D8DF80200082C09D132
:1030400007FB04A148B223466A464FFA88F1FFF70E
:1030500021FD08E007FB04A148B223466A464FFA67
:1030600088F1FFF717FD681CC5B2B81CC7B20BE0AA
:10307000725D07FB04A108B223464146FFF7A4FD99
:10308000681CC5B2781CC7B2705D002887D100BF2C
:103090003846BDE8F88F000010B500240BE0002191
:1030A0002046FFF77FFD054901EBC410802100F0A9
:1030B0002BF8601CC4B2082CF1DB10BDF405002015
:1030C00010B50446224610210148FEF730FE10BD1F
:1030D0000010014010B50446224620210148FEF7A9
:1030E00026FE10BD0010014010B50446FFF76BFC32
:1030F0007820FFF749FC0020FFF746FC2046FFF749
:1031000043FCFFF76EFC10BD70B505460E46FFF799
:103110005AFC7820FFF738FC4020FFF735FC0024EC
:1031200004E0285DFFF730FC601CC4B2B442F8DB59
:10313000FFF757FC70BD2DE9F04104460D4600F045
:103140002DFC00F0DDFB012000F022FC072000F048
:103150002DFC0C2000F034FC2012FEF74FFEE0B2F4
:10316000FEF74CFE2812FEF749FEE8B2FEF746FED7
:10317000142000EB2420E1B2084400EB2520E9B242
:1031800000EB0108404600F0D5FB4FF4FA60FEF773
:10319000D5FD07460FB17E7A00E0FF263046BDE838
:1031A000F08170B500F0FAFB00F0AAFB012000F0FE
:1031B000EFFB032000F0FAFB0D2000F001FC1126CC
:1031C000304600F0B7FB4FF4FA60FEF7B7FD054656
:1031D0000DB16C7A00E0FF24204670BD2DE9F0416E
:1031E000054600F0DBFB00F08BFB012000F0D0FB7C
:1031F000042000F0DBFB022000F0E2FB2846FEF793
:10320000FDFDEF1D384600F095FB4FF4FA60FEF728
:1032100095FD06460EB1747A00E0FF242046BDE815
:10322000F08170B500F0BAFB00F06AFB012000F0FD
:10323000AFFB032000F0BAFB012000F0C1FB052624
:10324000304600F077FB4FF4FA60FEF777FD054655
:103250000DB16C7A00E0FF24204670BD10B5044625
:1032600000F0F8FE00F09AFB00F04AFB0120FEF7A8
:10327000C5FD0020FEF7C2FD0020FEF7BFFDC820FF
:1032800000F084FD00F078FEE0B10F480078EF28F0
:1032900018D10D484078012814D10B4880790728AF
:1032A00010D10948807800060749C97800EB014031
:1032B0000549097900EB0120034949790844206058
:1032C000002010BD0120FCE7F40D00202DE9F0479F
:1032D00081460D4616461F4600F060FB00F010FBCD
:1032E000012000F055FB082000F060FB1B2000F0DF
:1032F00067FB4846FEF782FD2812FEF77FFDE8B225
:10330000FEF77CFD3012FEF779FDF0B2FEF776FD98
:1033100009F1240000EB2520E9B2084400EB262047
:10332000F1B200EB010A504600F004FB4FF4FA60E2
:10333000FEF704FD044664B194F80980E07AA17AAE
:1033400000EB01203880607B217B00EB012078803E
:1033500001E04FF0FF084046BDE8F0872DE9F0415D
:10336000044600F01BFB00F0CBFA012000F010FB3C
:10337000032000F01BFB032000F022FB0727384648
:1033800000F0D8FA4FF4FA60FEF7D8FC054655B1C4
:103390006E7A2088A97A40EA012020802088E97A84
:1033A0000843208000E0FF263046BDE8F0810000A1
:1033B0002DE9F041054600F0F1FA00F0A1FA0120F4
:1033C00000F0E6FA032000F0F1FA0F2000F0F8FA1E
:1033D0001327384600F0AEFA4FF47A70FEF7AEFCD1
:1033E0000446BCB1667AE07BA17B00EB012028801B
:1033F000607CA870A07C0006E17C00EB0140217D90
:1034000000EB0120617D08446860E07D2872607EE9
:10341000687200E0FF26002E14D129880FA000F06A
:1034200017FFA97815A000F013FF19A0696800F034
:103430000FFF687A4FF4165200FB02F117A000F05C
:1034400007FF07E03046FEF767F98046414617A0C0
:1034500000F0FEFE3046BDE8F08100000D0AE6A84F
:10346000A1E59D97E69C80E5A4A7E68C87E7BAB91D
:10347000E5AEB9E9878F3D25640000000D0AE5AF90
:10348000B9E6AF94E7AD89E7BAA73D25640000002F
:103490000D0AE59CB0E59D803D2578000D0AE6B358
:1034A000A2E789B9E78E873D256400000D0A2573E0
:1034B0000000000070B500F071FA00F021FA012060
:1034C00000F066FA032000F071FA052000F078FAA7
:1034D0000926304600F02EFA4FF4FA60FEF72EFC73
:1034E00005460DB16C7A00E0FF24204670BD2DE941
:1034F000F04106460C4600F051FA00F001FA0120B6
:1035000000F046FA062000F051FA062000F058FAC2
:103510003046FEF773FC2012FEF770FCE0B2FEF7B7
:103520006DFC06F10D0000EB2420E1B200EB010878
:10353000404600F0FFF94FF4FA60FEF7FFFB074644
:103540000FB17D7A00E0FF252846BDE8F08100003C
:103550002DE9F041064600F021FA00F0D1F90120F2
:1035600000F016FA032000F021FA1D2000F028FADE
:103570002127384600F0DEF94FF4FA60FEF7DEFB53
:10358000044634B1657AE07AA17A00EB01203080FC
:1035900000E0FF253DB9E07AA27A00EB022107A006
:1035A00000F056FE07E02846FEF7B6F88046414692
:1035B00008A000F04DFE2846BDE8F0810D0AE69C0B
:1035C00089E69588E68C87E7BAB9E4B8AAE695B0AB
:1035D0003D2564000D0A25730000000000B589B088
:1035E0000121084600F064F80121082000F070F87D
:1035F0000121084600F06CF801212348FEF742FB48
:1036000001212248FEF73EFB18208DF823000820F8
:10361000ADF8200003208DF8220008A91C48FEF711
:10362000A5FA4FF0804000F0F1FB0020ADF81A0041
:10363000ADF8160044F61F60ADF818004720ADF84D
:10364000140000208DF81C0005A94FF0804000F008
:1036500041FC01A800F032FC6020ADF8040000201D
:10366000ADF80C000120ADF806000020ADF80A000E
:1036700001A94FF0804000F0CFFB0121880700F046
:10368000B9FB09B000BD00000001180000023000C5
:10369000000C014010B5044621464FF0804000F078
:1036A00017FC10BD014908627047000000000E427F
:1036B00029B1064AD2690243044BDA6104E0034AA5
:1036C000D2698243014BDA6170470000001002406A
:1036D00029B1064A92690243044B9A6104E0034A05
:1036E00092698243014B9A617047000000100240CA
:1036F00030B500210022002400232D4D6D6805F017
:103700000C0121B1042905D0082923D105E0294D58
:10371000056022E0274D05601FE0254D6D6805F42A
:103720007012234D6D6805F48034022505EB92423A
:103730001CB9214D554305600BE01D4D6D6805F426
:1037400000351DB11C4D5543056002E0194D554330
:10375000056002E0174D056000BF00BF144D6D68A5
:1037600005F0F0010909154D6B5C0568DD40456009
:103770000F4D6D6805F4E061090A104D6B5C4568FA
:10378000DD4085600A4D6D6805F46051C90A0B4D36
:103790006B5C4568DD40C560054D6D6805F44041D2
:1037A000890B074D6B5CC568B5FBF3F5056130BD52
:1037B0000010024000127A0000093D0000000020C5
:1037C0001000002010B501460022002300204A11FD
:1037D000012A02D1094C236806E0022A02D1074CD3
:1037E000236A01E0054C636A01F01F020124944042
:1037F0001C400CB1012000E0002010BD0010024070
:1038000000210B4A11700A4A203A82F82010012840
:1038100002D0042808D103E00121054A117004E018
:103820000521034A117000E000BF00BF704700008F
:103830002010024001490860704700003C044242E9
:103840000249096A0143014A1162704700100240AF
:103850000348008840F010000149088070470000CC
:1038600004280040034800884FF6EF7108400149E2
:103870000880704704280040002103480188001F89
:10388000008841EA004070471C28004000B502460D
:10389000FFF7DEFF100C03490880091D0A80FFF7BF
:1038A000E1FF00BD1828004000B50246FFF7D0FF39
:1038B000C2F3034003490880091D0A80FFF7D2FFC5
:1038C00000BD00000828004000BF0348008800F049
:1038D00020000028F9D070470428004007480088DD
:1038E0004FF6F77108400549088000BF034800887B
:1038F00000F008000028F9D07047000004280040BC
:1039000010B50B490968080EFEF778FA08480068F8
:10391000C0F30740FEF772FA05480088C0F307209D
:10392000FEF76CFA02490878FEF768FA10BD00004D
:103930003000002010B504462012FEF75FFAE0B216
:10394000FEF75CFA10BD00002DE9F04105460E4679
:103950001446002700F0AEF812E0284600F0C8F840
:103960000A2001F0A5FE00F031F8012806D1314609
:103970000648FCF7BFFC08B1012703E0601E84B2D3
:10398000002CEAD100BF3846BDE8F081F4090020E0
:1039900010B504462046FEF731FA10BD10B5EF20F1
:1039A000FEF72CFA0120FEF729FA10BD10B50446E7
:1039B000C4F30720FEF722FAE0B2FEF71FFA10BDAB
:1039C00010B504462046FEF719FA10BD10B50A4896
:1039D0000078002805DD142001F06AFE0120074967
:1039E000087006480078012804D1002003490870B7
:1039F000012010BD0020FCE72C0000202B0000203F
:103A000000B587B001214804FFF752FE01210420D0
:103A1000FFF75EFE18208DF81B000420ADF818009B
:103A200003208DF81A0006A92048FEF79FF84820C9
:103A30008DF81B000820ADF8180003208DF81A003F
:103A400006A91A48FEF792F84FF4E13002900020E0
:103A5000ADF814000C20ADF812000020ADF81000F5
:103A6000ADF80E00ADF80C0002A9114800F078FB8B
:103A7000012240F225510E4800F04CFB4FF4A060AB
:103A8000FEF77EFE26208DF8040001208DF8070049
:103A90008DF805008DF8060001A8FEF739FE01211A
:103AA000034800F0F4FA07B000BD00000008014030
:103AB0000044004010B54FF480610348FCF70FFC50
:103AC00000200249087010BDF40900202C000020DD
:103AD00010B504462146054800F0B3FB00BF802125
:103AE000024800F0E0FA0028F9D010BD0044004080
:103AF00070B50446012001F0DBFD002504E0605DA7
:103B0000FFF7E6FF681CC5B2605D0028F7D170BD05
:103B100010B5FFF763FD10BD2DE9F04104460A49D9
:103B20002046FCF798FC80460849FCF762FC0746F3
:103B30000749FCF706FC0646FCF775FE85B22846E9
:103B4000FFF7A8FDBDE8F081000034430000FA440F
:103B50000000FA4310B500F001F810BD0CB50020CC
:103B6000019000903348006840F48030314908608B
:103B700000BF3048006800F4003000900198401CFD
:103B80000190009818B90198B0F5A06FF1D12948BB
:103B9000006800F4003010B10120009001E0002026
:103BA00000900098012843D12348006840F010009D
:103BB000214908600846006820F0030008600846B4
:103BC000006840F0020008601A48406819494860DF
:103BD0000846406848600846406840F48060486095
:103BE0000846406820F47C1048600846406840F46D
:103BF000E81048600846006840F08070086000BF28
:103C00000C48006800F000700028F9D009484068AE
:103C100020F00300074948600846406840F0020071
:103C2000486000BF0348406800F00C000828F9D144
:103C30000CBD00000010024000200240FEB504460A
:103C40002046FDF769FD05462046FDF765FD074660
:103C5000FCF762FBC6B206A0082110233246CDE96C
:103C60000105009100210846FEF7C4FAFEBD0000E0
:103C700025730A0010B5012005E00021054A22F84D
:103C80001010411C88B2B0F5007FF6DB00F036F86A
:103C900010BD0000F401002010B51648FEF7B0FC7E
:103CA0004AF2A051884214D01248FEF793FC4AF21F
:103CB000A0511048FEF798FC012407E00D4901EBE4
:103CC00044000021FEF790FC601C84B2B4F5007F34
:103CD000F4DB002409E0074901EB4400FEF790FC07
:103CE000054921F81400601C84B2B4F5007FF2DBB2
:103CF00010BD000000FC0008F401002010B50948C8
:103D0000FEF768FC002409E0074A32F81410054A5F
:103D100002EB4400FEF768FC601C84B2B4F5007F3F
:103D2000F2DB10BD00FC0008F401002010B51348C0
:103D3000006840F0010011490860084640681049D9
:103D400008400E494860084600680E4908400B4983
:103D500008600846006820F4802008600846406833
:103D600020F4FE0048604FF41F008860FFF7F2FE69
:103D70004FF000600449086010BD000000100240D0
:103D80000000FFF8FFFFF6FE08ED00E03EB5044638
:103D900001210420FFF78CFC04EB84000121C1EB1E
:103DA000400080B2ADF8040041F61F40ADF80000BD
:103DB0000020ADF8020069460D4800F08BF80020A5
:103DC0000B49103108800121094800F013F800BFA9
:103DD00007481030008800F001000028F8D00021CA
:103DE000034800F007F800200149243108803EBD57
:103DF0000008004021B1028842F00102028004E084
:103E000002884FF6FE731A400280704701894FF610
:103E1000F87211400181704770B500240022002320
:103E2000058C4FF6EF7635400584028C8388048B31
:103E300048F6FF752C404FF6FF452C400D884FF695
:103E4000FF7606EA05252C434FF6DF752A400D89DB
:103E500006EA05152A434D8806EA05152A43154D3D
:103E6000A84202D0144DA8421DD14FF67F752A40BA
:103E70004D894FF6FF7606EA05152A434FF6BF75C2
:103E80002A408D8806EA05152A434FF6FF352B4058
:103E90004FF2FF752B408D8906EA85052B43CD89AE
:103EA00006EA85052B4383800483CD880587028439
:103EB00070BD0000002C0140003401400021018051
:103EC00041808180C180018141818181C1817047B0
:103ED00001877047002202881D4B98420ED01D4B6F
:103EE00098420BD0B0F1804F08D01B4B984205D0C0
:103EF0001A4B984202D01A4B984204D14FF68F7356
:103F00001A404B881A43174B984207D0164B9842D9
:103F100004D04FF6FF431A40CB881A4302808B88A7
:103F200083850B8803850A4B98420BD0094B984236
:103F300008D00E4B984205D00D4B984202D00D4B45
:103F4000984201D10B7A03860123838270470000D7
:103F5000002C0140003401400004004000080040F3
:103F6000000C0040001000400014004000400140E0
:103F7000004401400048014010B50A48007800287C
:103F800005DD1420FFF702FF0120074908700648ED
:103F90000078012804D1002003490870012010BDD9
:103FA0000020FCE72E0000202D00002010B5044664
:103FB0002146054800F045F900BF8021024800F085
:103FC00072F80028F9D010BD0048004010B540F24A
:103FD00025510C4800F074F8012812D1094800F06E
:103FE0002BF9C4B2084809490978445407480078B5
:103FF000401C0649087040F22551024800F038F88C
:1040000000BF10BD00440040F40900202C00002037
:1040100010B540F225510C4800F052F8012812D199
:10402000094800F009F9C4B208480949097844541C
:1040300007480078401C0649087040F225510248A4
:1040400000F016F800BF10BD00480040F40D00203D
:104050002E00002010B5C8210348FCF740F90020CD
:104060000249087010BD0000F40D00202E00002051
:1040700010B50022002340F66A14A14200D100BF0F
:104080000A1201249440A3B2DC43048010BD21B184
:10409000828942F40052828104E082894DF6FF73E6
:1040A0001A408281704702460020B1F5007F00D19E
:1040B00000BF13880B400BB1012000E000207047C7
:1040C00070B50246002400230025002040F66A1641
:1040D000B14200D100BFC1F3421501F01F03012618
:1040E00006FA03F3012D02D19689334006E0022D32
:1040F00002D1168A334001E0968A33400C12012621
:1041000006FA04F41688344013B10CB1012000E023
:10411000002070BDF0B503460024002600250020D5
:1041200040F66A17B94200D100BF1846C1F34214E5
:1041300001F01F06012707FA06F5012C01D10C300A
:1041400004E0022C01D1103000E014301AB10768ED
:104150002F43076002E00768AF430760F0BD00002F
:104160002DE9F04786B005460E460024A24600BF62
:10417000A1460027B08900B100BF2F462C8A4CF61B
:10418000FF700440F08804432C82AC894EF6F31093
:104190000440B08831890843718908430443AC81E5
:1041A000AC8A4FF6FF400440B0890443AC8201A8BA
:1041B000FFF79EFA1F48874202D1DDF810A001E008
:1041C000DDF80CA0A88900F4004040B10AEBCA0059
:1041D00000EB0A1031684900B0FBF1F807E00AEB88
:1041E000CA0000EB0A1031688900B0FBF1F86420C6
:1041F000B8FBF0F004012009642101FB1089A889B3
:1042000000F4004040B1322000EBC900B0FBF1F0F7
:1042100000F00700044308E0322000EB091064219D
:10422000B0FBF1F000F00F0004432C8106B0BDE8B4
:10423000F08700000038014001468888C0F308007C
:104240007047C1F308028280704700BFFEE700009C
:104250000FB4054B10B503A9044A029800F0ECF81E
:1042600010BC5DF814FB0000494B0008F001002071
:1042700037B514460846064B6A46214600F0DCF87E
:1042800004466946002000F05AFC20463EBD00006E
:104290003F4B000802E008C8121F08C1002AFAD1EB
:1042A00070477047002001E001C1121F002AFBD1B6
:1042B000704700002DE9FF5F82B00021DDE9043086
:1042C000020DDDF840B0034318D044F61050A2F2BE
:1042D000FF3242431514119801281FD0A5EB0B00A3
:1042E000401C5FEA000A4FF000064E4FDFF838919D
:1042F000B046504615D5CAF1000413E011980124C8
:104300004AA3012801D16FEA0B010298119AC0E972
:104310000031C0E9024206B0BDE8F09FCBF10000D9
:10432000DFE704460021404A491842EB0450CDE93A
:10433000001012E0E00707D032463B4640464946AF
:10434000FCF76EF98046894632463B4610461946D0
:10435000FCF766F906460F466410002CEAD1DDE949
:104360000401DDE90023BAF1000F06DAFCF758F981
:1043700042464B46FCF754F905E0FCF7C3F94246C8
:104380004B46FCF7BFF904460E460022284BFCF7CB
:1043900071FA03D84FF0FF30014607E00022254BA9
:1043A00020463146FCF795F8FCF7E8FB102409E0BD
:1043B000002C0ADB0A220023FCF79EFA039B303212
:1043C0001A55641E50EA0102F2D1641C039AC4F12A
:1043D00011031444119A012A03D0012208430DD17C
:1043E0000AE0084304D000204FF0110B119072E74F
:1043F000A3EB0B056D1E0DE05B4504DD4FF00002E5
:1044000005F1010504E003DA4FF00002A5F1010512
:10441000002AECD002981199C0E90231C0E90045A8
:1044200079E70000000014400000F03F3000000079
:104430000000F0430000E03F2DE9FF4F95B09A46A1
:10444000884606460025EEE1252877D10024274638
:10445000F94A0121039400E0044316F8013F203B90
:1044600001FA03F01042F7D130782A2811D06FF00A
:104470002F033078A0F13002092A16D8039A44F0AD
:10448000020402EB820203EB42021044761C03900A
:10449000EFE758F8042B0392002A03DA504244F461
:1044A0000054039044F00204761C30782E2816D174
:1044B00016F8010F44F004042A280DD06FF02F02E3
:1044C0003078A0F13003092B09D807EB870302EB02
:1044D0004303C718761CF3E758F8047B761C307842
:1044E0006C280FD006DC4C2817D068280DD06A281D
:1044F00014D104E0742810D07A280FD10DE044F4D0
:1045000000140AE044F4801401E044F4401472788A
:10451000824202D104F58014761C761C307866281D
:104520000BD013DC582877D009DC002875D045283B
:10453000F6D04628F4D047281AD193E118E0632832
:1045400035D0642879D0652812D18BE1702873D0DA
:1045500008DC6728F1D069286FD06E280DD06F284D
:1045600006D1ACE073282CD0752874D0782853D0AD
:104570005246179990476D1C54E1C4F3025002282B
:1045800009D003280DD0D8F8001004280DD00D60F4
:1045900008F1040846E1D8F80010EA17C1E9005212
:1045A000F6E7D8F800100D80F2E70D70F0E718F884
:1045B000041B8DF8001000208DF80100EB4601204F
:1045C00003E058F804BB4FF0FF3061074FF00001E3
:1045D00002D40DE009F101018946B9420FDA8145A3
:1045E000F8DB1BF809100029F4D108E009F10101FA
:1045F00089468142FADB1BF809100029F6D103989D
:104600005346A0EB090721463846179A00F080FA76
:10461000284400EB090507E044E008E10DE01BF841
:10462000010B524617999047B9F10109F7D2534649
:1046300021463846179AF2E039E00A21C4F30252C3
:104640004FF0000B0091022A06D058F8040BC11756
:10465000032A09D00AE023E008F1070020F007024E
:10466000F2E80201904605E000B2C117042A01D128
:1046700040B2C117002906DA0A460021404261EB28
:1046800002012D2202E0220504D52B228DF8042000
:10469000012203E0E20701D02022F7E7914657E02C
:1046A0000A2100E010214FF0000B00910BE01021D7
:1046B0004FF0000B44F004040827009103E00820A9
:1046C0004FF0000B0090C4F30252022A05D058F8B4
:1046D000040B0021032A08D008E008F1070020F0AD
:1046E0000702F2E80201904603E080B2042A00D1FA
:1046F000C0B24FF0000922072AD53278702A07D0BD
:10470000DDF800C08CF0100C5CEA0B0C05D00EE05C
:1047100040228DF80420012208E050EA010306D06F
:1047200030238DF804308DF8052002229146009B3D
:1047300083F0080353EA0B030AD150EA010201D1C6
:10474000620705D530228DF804204FF001097F1E45
:104750003278582A04D039A20C920CAA02920BE0AB
:104760003BA2F9E75B46009AFCF7C6F80C9B9B5C02
:10477000029A521E0292137050EA0102F2D102987C
:1047800004A9081A00F1200B600702D524F4803434
:1047900000E001275F4502DDA7EB0B0000E00020F1
:1047A00000EB0B01009003984944401A0390E0038A
:1047B00006D453462146179A039800F0A9F90544F8
:1047C000002706E001A85246C05D179990476D1C6E
:1047D0007F1C4F45F6DBE0030CD553462146179A64
:1047E000039800F095F9054404E0302052461799EB
:1047F00090476D1C0099481E00900029F5DC08E0E8
:104800000298029952460078491C029117999047E4
:104810006D1CBBF10001ABF1010BF1DC5BE100F0C1
:1048200065F90544761C307800287FF40DAE19B088
:104830002846BDE8F08F00000928010030313233EE
:1048400034353637383961626364656600000000CC
:1048500030313233343536373839414243444546B6
:1048600000000000600700D4062708F1070020F0D0
:104870000700F0E80223804603F0004C5FEA0C00DA
:1048800001D097A009E0200501D596A005E0E0073A
:1048900001D095A001E0AFF24C001390307823F0E6
:1048A000004365280CD006DC452809D046281DD0D9
:1048B00047287FD13BE0662818D067287AD136E0B8
:1048C0000021112F01DB112000E0781CCDE900014F
:1048D00004A90CA8FFF7EEFCDDE90D010C9A4FF0DE
:1048E000000B07F10109109200914EE04FF00040DB
:1048F0000097CDE9011004A90CA8FFF7DBFCDDE966
:104900000D020C9B0F994FF0000B914610930092F3
:1049100011B9791C00EB0109B7EB090003D4C0F110
:10492000FF3B07F10109A9EB0700019042E0012FCD
:1049300000DA01270021112F01DD112000E03846A7
:10494000CDE9000104A90CA8FFF7B4FCDDE90D01D5
:104950000C9A00914FF0000BB946109221070FD42A
:10496000009A4A4503DA914601E0A9F10109B9F13B
:10497000010F05DD109AA9F10101515C3029F4D035
:10498000B84202DA10F1040F03DA0121CDE9011077
:1049900010E0002803DC8344A9EB000102E0411C85
:1049A000494500DD8946A0EB0B00401C01904FF00B
:1049B00000400290200705D40198484502DB4FF0E3
:1049C000FF30019000208DF84B0002980DF14B074D
:1049D000B0F1004F25D002200C902B200D900298B2
:1049E00000280CDA404202902D200D9007E00A21A9
:1049F0000298FBF76BFF3031029007F8011D0C990C
:104A0000481E0C900029F2DC02980028EFD1791E94
:104A10000D980870307800F0200040F0450007F84D
:104A2000020D11A8C01BC01D02901398007800B1A0
:104A3000012000EB0901019801EBE07102980144AB
:104A40000398401A401E0390E00306D453462146C3
:104A5000179A039800F05CF805441398007818B191
:104A60005246179990476D1CE00323D553462146C3
:104A7000179A039800F04CF805441BE0BBF1000FB7
:104A800007DB0098584504DD1098179910F80B00C3
:104A900001E0179930205246904701980BF1010B25
:104AA000401E05F10105019004D12E2052461799B0
:104AB00090476D1CB9F10001A9F10109DEDC05E0A8
:104AC00017F8010B5246179990476D1C0299481E22
:104AD00002900029F4DC53462146179A03989EE67B
:104AE0002D0000002B000000200000002DE9F04107
:104AF000044600251E461746880404D405E03946BE
:104B00002020B0476D1C641EF9D52846BDE8F08111
:104B10002DE9F041044600251E469046C80301D504
:104B2000302700E02027880404D505E041463846B8
:104B3000B0476D1C641EF9D52846BDE8F0810A68AF
:104B4000531C0B601070704770B504460D46E0B200
:104B5000FEF7BEFF204670BD1CB5064801210023AC
:104B60008022CDE9001004A1064800F0BFFE00F04D
:104B70001FFE1CBD4000002073746172745F74617D
:104B8000736B00000553000810B5FDF735FFFDF706
:104B90003AFDFEF7BDFFFEF733FFFFF77DF8FCF7A8
:104BA0005BFDFCF7E9FAFCF7D1FA4FF4614000F045
:104BB0008BFCFFF7D1FF002010BD00007FB5FDF793
:104BC000E9FD67A0082110238022CDE90010002113
:104BD0000846FDF70FFBFEF75FFA1FE04FF4C870C1
:104BE000FFF7D4F864A0082110238022CDE900103B
:104BF00019460020FDF7FEFAFEF74EFA4FF4487012
:104C0000FFF7C4F861A0082110238022CDE900102D
:104C100020210020FDF7EEFAFEF73EFA6048FEF78D
:104C20001DFB0028DAD15FA0082110234022CDE926
:104C3000001019460020FDF7DDFAFEF72DFA5D4859
:104C4000FEF786FC044614B12046FEF7F7FF5A48EB
:104C5000FEF7AEFB0446FCB9574800885549098861
:104C6000401A56A108221023CDE9002102905022BB
:104C700020210020FDF7BEFA4F48807853A108227A
:104C80001023CDE900210290502230210020FDF7B1
:104C9000B1FAFEF701FA02E02046FEF7CFFF5EE030
:104CA000FDF778FD20214D48FDF734F8012856D155
:104CB000FEF7B7FA0546002D51D1FCF781FA012025
:104CC000FEF78CFA0546002D44D145490860084698
:104CD0000068FEF721FFFCF769FA3748028803AB4A
:104CE00000210120FEF7F2FA054675BBFDF752FDE3
:104CF0003CA0082110235022CDE9001000210846D5
:104D0000FDF778FAFEF7C8F9BDF80C0039A10822C2
:104D10001023CDE900210290402219460020FDF722
:104D200069FABDF80E0035A108221023CDE9002153
:104D30000290682220210020FDF75CFAFEF7ACF912
:104D40004FF47A70FFF722F87FBDFFE72846FEF7A1
:104D500075FF02E02846FEF771FFFCF727FA9FE790
:104D6000E4B88E4153363038E6A8A1E59D97E68F2A
:104D7000A1E6898B2E000000E69CAAE6A380E6B59A
:104D80008BE588B0E6A8A1E59D972100E5B09DE8F8
:104D9000AF95E8BF9EE68EA5E6A8A1E59D972E00FB
:104DA00030000020E9809AE8AEAFE68890E58A9F5F
:104DB0000000000084000020BC0E0020E5BA93E54E
:104DC000AEB9E9878F3A256400000000E5AFB9E687
:104DD000AF94E7AD89E7BAA73A256400000C01401B
:104DE00034000020E588B7E68C87E7BAB9E68890FA
:104DF000E58A9F0049443A2564000000E58CB9E942
:104E0000858DE5BE97E588863A2564002DE9F04159
:104E100005460E461C4807681C480068001D00F047
:104E2000ADFB50B91948006890F82C10012088405B
:104E300017490968814316480160681C38B936B1C2
:104E400012480168091D134800F0D6FB1AE07C19CE
:104E50000E4800684460BC4207D20C480168091D36
:104E60000D48006800F0AEFB0CE008480168091D21
:104E70000A48006800F0A6FB09480068844201D295
:104E800007480460BDE8F081C8010020B40100209B
:104E9000CC0100207C530020BC010020B801002080
:104EA000E401002010B5044600F0B2FB234800687E
:104EB000401C224908602248006840B9204804602C
:104EC0000846006801280DD100F014F90AE01D48D9
:104ED000006838B91A480068C06AE16A884201D897
:104EE0001748046018480068401C1749086094F887
:104EF0002C100120884015490968084313490860AF
:104F0000E16A01EB8101124A02EB8100211D00F0F0
:104F100073FB00F08FFB0B48006868B1084800681D
:104F2000C06AE16A884207D24FF0805009490860A0
:104F3000BFF34F8FBFF36F8F10BD0000C40100207F
:104F4000B4010020D0010020E0010020CC010020AD
:104F5000C852002004ED00E070B523E000F05AFCD8
:104F60001348006808B9012000E00020054600F061
:104F70007BFDBDB900F04CFB0D48C068C468201D26
:104F800000F0FCFA0B480068401E0A4908600A4815
:104F90000068401E0849086000F04CFB204600F005
:104FA0000DF800BF044800680028D7D170BD00008C
:104FB00068530020C4010020C001002010B5044641
:104FC000206B00F047FB204600F044FB10BD0000C2
:104FD00030B54FF48843174800F007042CB1C01DCA
:104FE00020F00700134C041B1B1B0246124C2260CE
:104FF0000024114D6C60D018083820F007000F4CC9
:10500000206000240D4D2D686C600C4D2D682C60C7
:105010001146441A4C60094C24680C60084D4C68D9
:105020002C60084D4C682C604FF00044064D2C60FD
:1050300030BD0000C80E00209C010020A40100200B
:10504000AC010020A8010020B001002000BFFFF744
:1050500083FF064800680128F9D94FF080500449C1
:105060000860BFF34F8FBFF36F8FF0E7C852002087
:1050700004ED00E02DE9FF5F80460E469146DDE934
:105080000E7A109CA9F10100216B01EB800B2BF033
:10509000070B002507E0715D04F134004155705D98
:1050A00000B902E06D1C102DF5D300BF0021432094
:1050B0000155052F00D30427E762201D00F07FFA79
:1050C00004F1180000F07BFA2461C7F10500A0612B
:1050D00064620020606484F8480041465846039AA0
:1050E00000F0FEF82060BAF1000F01D0CAF80040CD
:1050F000BDE8FF9F10B5002407E004EB84010F4AD0
:1051000002EB810000F04EFA641C052CF5D30C482C
:1051100000F048FA0B4800F045FA0B4800F042FA5C
:105120000A4800F03FFA0A4800F03CFA04480949EE
:10513000086004480849086010BD0000C8520020FB
:105140002C5300204053002054530020685300206B
:105150007C530020B8010020BC01002010B501469E
:10516000164800E0006803688B42FBD302464368A0
:1051700013448B4204D143684C6823444360014686
:105180000A464B6813440468A34211D10C4C0368CF
:105190002468A34208D04B680468646823444B60C9
:1051A00003681B680B6005E0054B1B680B6001E0A2
:1051B00003680B60884200D0016010BD9C01002094
:1051C000A40100200A490968096809B9012100E021
:1051D000002121B14FF0FF31064A116006E0044979
:1051E0000968C968C868034A4168116070470000CF
:1051F000B8010020E401002000BFBF2080F3118827
:10520000BFF34F8FBFF36F8F00BF00BFFEE70000FB
:105210002DE9F04105464FF0000800F0FBFA2B485D
:10522000006808B9FFF7D4FE294800682840002824
:1052300047D145B1083505F0070020B105F007005A
:10524000C0F108000544002D3BD02248006885428B
:1052500037D8214E3046046801E02646246860684D
:10526000A84202D220680028F7D11848006884427A
:1052700027D0306800F10808206830606068401B63
:10528000102807D967196068401B78606560384648
:10529000FFF764FF0F4960680968081A0D49086044
:1052A000084600680D490968884203D20948006829
:1052B0000A49086006496068096808436060002080
:1052C000206000F0D1FB4046BDE8F081A401002041
:1052D000B0010020A80100209C010020AC010020AA
:1052E000001F4FF080730360001F21F00103036073
:1052F000001F034B03601438026020387047000021
:10530000F95100081CB5044600F082F91148022149
:1053100000238022CDE900100FA1114800F0E6FA29
:105320001048042100238022CDE900100EA110486E
:1053300000F0DCFA0F48032100238022CDE90010A1
:105340000DA10F4800F0D2FA002000F0CBF900F0D8
:1053500071F91CBD440000207461736B31000000C2
:1053600085530008480000207461736B3200000010
:105370008D5300084C0000207461736B33000000F3
:10538000E953000801E0FCF7E1FDFCE725E01348E4
:10539000FBF7CAFF11480078012807D1FBF710FF7F
:1053A0004FF4967000F084F9FBF700FF0C48016899
:1053B0000020FBF777FA0CD10A48094908604FF43E
:1053C000967000F075F906480068FEF7A5FBFBF73C
:1053D000EDFE4FF4967000F06BF9D8E73D00002029
:1053E000340000200000B442FBF7CCFF4AE0FEF797
:1053F000EDFA002843D024A12548FAF77BFF254980
:10540000086008460068002839D008460068FAF7A6
:1054100083FFC4B20021A01E1E4A126811541E4808
:10542000007801280AD108231A4830210268102088
:10543000FDF7C8FC00201849087005E0082317A2F2
:1054400000216420FDF7BEFCFDF726FE0020144974
:10545000087014490860FBF7B3FE12480068FEF7B5
:105460005BFB00BF4FF47A720FA110A0FEF76CFA3D
:105470000128F7D112A0FEF73BFBFEF71BFBC8206B
:1054800000F016F9B3E70000534552562B4F4E007B
:10549000F4090020380000208600002021210000AF
:1054A0003C000020340000203E00000041542B430B
:1054B000495053454E4445583D312C370D0A0000A4
:1054C000534552562B4F4B0010B586B00446012170
:1054D0008804FEF7EDF801210820FEF7F9F81820FE
:1054E0008DF817004FF48060ADF8140003208DF89C
:1054F000160005A91F48FCF739FB48208DF8170056
:105500004FF40060ADF8140003208DF8160005A9D3
:105510001848FCF72BFB01940020ADF810000C207C
:10552000ADF80E000020ADF80C00ADF80A00ADF8A3
:10553000080001A91048FEF713FE012240F2255190
:105540000D48FEF7E7FD4FF4A060FDF719F927209D
:105550008DF8000001208DF803008DF801008DF812
:1055600002006846FDF7D4F801210348FEF78FFDDD
:1055700006B010BD000C01400048004001460A6919
:10558000D1E901309860D1E9010358605068884240
:1055900001D188685060002008611068401E1060CA
:1055A0001068704700F1080141604FF0FF318160E1
:1055B00000F10801C1600161002101607047002114
:1055C0000161704710B502460B685C1C0CB910698C
:1055D00007E002F1080000E04068446824689C424B
:1055E000FAD944684C604C68A160886041600A61E7
:1055F0001468641C146010BD42684A6093688B6034
:10560000936859609160086103685B1C0360704790
:1056100000BFBF2080F31188BFF34F8FBFF36F8FA0
:1056200000BF03480068401C014908607047000043
:105630009801002006480068401E05490860084699
:10564000006820B9002080F3118800BF00BF7047B8
:105650009801002070B506463546D6B1083D2C4667
:105660000C4960680968084098B1206888B9094900
:10567000606809688843606000F0CCF8064960689B
:1056800009680844044908602046FFF767FD00F0F8
:10569000EBF970BDB0010020A801002003484FF0D5
:1056A000E021486107200861704700003F190100B0
:1056B00070B50446002544B100F0ACF80021204646
:1056C000FFF7A4FB00F0D0F905463DB94FF080503C
:1056D00003490860BFF34F8FBFF36F8F70BD0000A9
:1056E00004ED00E070B50546FFF792FF15B92748B5
:1056F000006800E028460446201DFFF73FFF78B908
:10570000E06A00EB8000224951F8200040B994F88B
:105710002C10012088401F49096881431D48016001
:10572000A06A18B104F11800FFF728FF1A480068B2
:10573000401C1949086015480068844209D1211DA0
:105740001648FFF759FF16480068401C14490860C6
:1057500009E014480068401E124908602046FFF71F
:105760002DFCFFF72FFDFFF765FF0F48006858B1CC
:1057700006480068844207D14FF080500B4908600A
:10578000BFF34F8FBFF36F8F70BD0000B4010020D7
:10579000C8520020CC010020E00100206853002006
:1057A000C0010020C4010020D001002004ED00E071
:1057B0001CB5114800210B468022CDE900100FA135
:1057C000104800F093F80446012C14D100BFBF200C
:1057D00080F31188BFF34F8FBFF36F8F00BF4FF07F
:1057E000FF30094908600120084908600020084985
:1057F000086000F047F81CBDE801002049444C4512
:10580000000000004D500008E4010020D0010020FD
:10581000C801002002480068401C01490860704728
:10582000EC0100201248006818B1012011490860FD
:105830001DE000200F4908600F480068B0FA80F0B2
:10584000C0F11F0101EB81020C4B03EB82004268A7
:105850005268426000F108024368934202D14268F4
:10586000526842604268D268054B1A6000BF7047B8
:10587000EC010020D8010020CC010020C8520020FB
:10588000B401002010B50A48006840F47F000849C0
:1058900008600846006840F07F400860FFF7FEFEA1
:1058A000002004490860FAF761FC002010BD0000E8
:1058B00020ED00E09801002010B500BFBF2080F36C
:1058C0001188BFF34F8FBFF36F8F00BF00F03EF81A
:1058D00018B14FF080500449086000BF002080F3E9
:1058E000118800BF10BD000004ED00E02DE9FF4F5E
:1058F00085B0804689461746DDE912ABB800FFF750
:1059000087FC064656B14C20FFF782FC04460CB1DA
:10591000266304E03046FFF79DFE00E000247CB1E2
:105920000020CDE900ABCDE902403A464946404669
:10593000089BFFF79FFB2046FFF7B4FA012501E023
:105940004FF0FF35284609B0BDE8F08F2DE9F04152
:1059500000273A480068002863D139480068451C90
:10596000374805608DB93748D0F800803648006860
:10597000344908603448C0F8008034480068401C4E
:1059800032490860FFF71EFC00BF314800688542BD
:105990003BD300BF2B480068006808B9012000E035
:1059A000002020B14FF0FF30294908602CE0254845
:1059B0000068C068C4686668B54202D224480660C0
:1059C00022E0201DFFF7DAFDA06A18B104F11800EB
:1059D000FFF7D4FD94F82C10012088401D49096878
:1059E00008431C490860E16A01EB81011A4A02EB95
:1059F0008100211DFFF700FE1849E06A0968C96AA5
:105A00008842C7D30127C5E700BF14480068C06AB1
:105A100000EB8000104951F82000012800D901272F
:105A200004E00F480068401C0D4908600D480068FC
:105A300000B101273846BDE8F0810000EC010020EC
:105A4000C8010020B8010020BC010020DC010020BA
:105A5000E4010020CC010020C8520020B401002045
:105A6000D4010020D801002070B500240026FFF7E3
:105A7000CFFD2E480068401E2C490860084600688B
:105A800000284FD12A48006800284BD024E029483C
:105A9000C068C46804F11800FFF770FD201DFFF70F
:105AA0006DFD94F82C1001208840234909680843B3
:105AB00021490860E16A01EB8101204A02EB810083
:105AC000211DFFF799FD1E49E06A0968C96A8842ED
:105AD00002D301201B4908601648006808B901205C
